:020000040000fa
:080000000001040000000000f3
:020000040000fa
:10000800980700009807000098070000980700006c
:10001800980700009807000098070000980700005c
:10002800980700009807000098070000980700004c
:100038009807000098070000ac010000980700002e
:1000480098070000e0010000980700004a0200003d
:10005800980700009807000098070000980700001c
:10006800980700009807000098070000980700000c
:1000780098070000980700009807000098070000fc
:1000880098070000980700009807000098070000ec
:1000980098070000980700009807000098070000dc
:1000a80098070000980700009807000098070000cc
:1000b80098070000980700009807000098070000bc
:1000c80098070000980700009807000098070000ac
:1000d800980700009807000098070000980700009c
:1000e800980700009807000098070000980700008c
:0800f8009807000098070000c2
:020000040000fa
:10010800980700009807000098070000980700006b
:10011800980700009807000098070000980700005b
:10012800980700009807000098070000980700004b
:100138009807000098070000ac010000980700002d
:1001480098070000e0010000980700004a0200003c
:10015800980700009807000098070000980700001b
:10016800980700009807000098070000980700000b
:1001780098070000980700009807000098070000fb
:1001880098070000980700009807000098070000eb
:1001980098070000980700009807000098070000db
:1001a80098070000980700009807000098070000cb
:1001b80098070000980700009807000098070000bb
:1001c80098070000980700009807000098070000ab
:1001d800980700009807000098070000980700009b
:1001e800980700009807000098070000980700008b
:0801f8009807000098070000c1
:020000040000fa
:100200000f8420000eff20000e0188000000000077
:1002100000012000200288000c00070060dd2100a2
:100220000100200011000700000020000000e00095
:1002300002003200000002000000000082070200fd
:10024000000000000040da000000fe004440a90069
:1002500020a220000000e000030032000000200087
:10026000a00188004440a800000006009101880019
:10027000800078000000eb0015003700e2804000ad
:1002800032a0b4009101ba00e280400032a0b40074
:100290009102ba00e280400032a0b4000002eb00fc
:1002a000472bde00f507b200602ce10004003a00a5
:1002b0000059eb008301e900fdff3e000400370018
:1002c0006128e100010032000082eb000400070019
:1002d0001101ba000200e000e8ff3a000000060049
:1002e0003159ba008301e9000c0032002159ba00eb
:1002f0008301e900080032000400e00003003a0036
:10030000e280400032a0b400f5ff370011d9ba00f6
:100310008301e900faff3a008100e800e180400033
:1003200032a0b40000000600000000000000000041
:1003300000000000000000000000000000000000bd
:1003400000000000000000000000000000000000ad
:100350000000000000000000849fbe003400f80090
:1003600004002000a40188000000fa000002eb0055
:1003700034088800a44180000402e800a4418800f9
:10038000244080000402e80024408800a541800049
:10039000843e2000848f520004003a000002eb00eb
:1003a000a4418800140020004440880084c0a900b3
:1003b0000080fa003400f9004f02be000040060041
:1003c000801f7800849fbe003400f80000002000e9
:1003d000a00188000200fa008520a90074108000a6
:1003e00062026200e00f5200010032000e22a900fa
:1003f00094108000044f7800a483200014427800f9
:100400000404a200e04f52001d0032001e4278009a
:10041000ea4f5200030032001e427800ed4f5200b6
:100420000b003a00c54180004482200084824200d3
:100430000042eb00844a78000002eb00c4418800cf
:1004400014c0b300044078003ae8b7000c0037004d
:10045000c4418000ee0f520007003c00c441800000
:1004600045822000850242009e4a78000402e8008e
:10047000c4418800020037000002eb00c44188003c
:100480000080fa003400f9004f02be004f007800ef
:1004900000400600841f78003400f80004002000ab
:1004a000a40188000000fa00041480005440880071
:1004b0001414800064408800241480007440880074
:1004c0003414800084408800644080000441880027
:1004d00074408000144188008560a9000080fa0003
:1004e0003400f9004f027800004006000200fa00d4
:1004f000000f78000002eb0024408800000000009c
:100500009e02780024408000848f5200fcff3e0051
:100510000080fa00000006000200fa00000f7800d8
:100520000002eb00a44088000d0037000002eb0041
:10053000b440880003003700b44080000402e800a3
:10054000b4408800b5408000b4032000848f52007e
:10055000f9ff3400a44080000402e800a4408800b1
:10056000a44080009e0f5200f0ff35000080fa008a
:10057000000006000000fa0014090700242e2000e5
:1005800004000100230a07005e0a0700410d07006e
:100590000438200004000100450d0700920d0700fb
:1005a000a1e2a800c162a900c782a800c6c2a80033
:1005b000c6e2a800c762a90011e1a8000080fa0005
:1005c000000006000000fa00cda2a900cdc2a900db
:1005d0000080fa00000006000400fa0010079800ee
:1005e0009e029000a4002000110009008482d8001f
:1005f00000027800044f780005c3b3001ec2420019
:1006000004407800d50b07001e4078008082fb0074
:1006100064ff2f0004aab900040278009e02900033
:1006200004824200140798001e02900004427800e1
:100630000443b00004407800c80b07000080fa00b3
:10064000000006000000fa00d1a2a800d1c2a90053
:1006500040062000a5ff070004418000e440880018
:10066000d1a2a900d1c2a800400620009fff070028
:1006700014418000f4408800e4408000140ab10076
:10068000050020000400be008b0207000002be002f
:10069000324d2a0043d123000400be00db020700d4
:1006a0000002be000400be00650207000002be009a
:1006b00004027800c4408800f4408000441fb10068
:1006c000050020000400be007b0207000002be00ff
:1006d000a2772c0093ca23000400be00cb020700bf
:1006e0000002be000400be00550207000002be006a
:1006f00004027800d44088000080fa000000060060
:100700000000fa000e22a90054012000a410880065
:100710000d42a9008d20a80075108000c4ff2f0095
:1007200004826200741088000de2a8000f42a80045
:100730008520a9000080fa00000006000200fa00ef
:10074000000f7800000000007510800004102000e9
:1007500004826200e00f5200fbff32006410800050
:1007600066026200e60f520003003a001e027800a3
:100770008410880003003700f40f20001e0262007e
:10078000841088000080fa00000006000400fa00cf
:10079000100798009e029000843e2000110009007e
:1007a0008482d80000027800044f78009e427800ce
:1007b0000582fb000403b00004007800dfff07009f
:1007c0001e4078008082fb0084c12f0004aab9007b
:1007d000040278009e0290000482420014079800f0
:1007e0009e02900044062000110009008482d80077
:1007f00000027800044f78009e4278000582fb00da
:100800000403b00004007800ccff07001e4078000d
:100810008082fb00c4f92f0004aab900040278000a
:100820009e02900004824200140798009e029000ed
:10083000a4002000110009008482d8000002780082
:10084000044f78009e4278000582fb000403b0004c
:1008500004007800b9ff07001e4078008082fb008a
:1008600064ff2f0004aab900040278009e029000e1
:1008700004824200140798001e0290000403b00096
:1008800004007800adff07000080fa0000000600b9
:100890000000fa00881f7800000478000500370087
:1008a000184278000402fb0004007800a3ff070050
:1008b0000804e80018427800e04f5200f8ff3a00c0
:1008c0004f0478000080fa00000006000a00fa00d9
:1008d0002007980031079800420798000002eb00bb
:1008e000040f7800110037000002eb001407980095
:1008f00009003700c562a8002e00900006ff07001f
:10090000c562a9003e00900003ff07001e02900090
:100910000402e800140798009e0290004e02900026
:10092000848f5200f3ff35001e0fe80034062000cc
:100930009e027800848f5200ebff34000080fa00a2
:10094000000006000200fa000002eb00040f78002d
:1009500007003700cb62a80060002000eefe070011
:10096000cb62a90000072000ebfe07001e0fe80085
:100970001e027800ee0f5200f6ff34000080fa00ed
:10098000000006000200fa000002eb00040f7800ed
:1009900007003700cb62a800c0002000defe070081
:1009a000cb62a90000072000dbfe07001e0fe80055
:1009b0001e027800ee0f5200f6ff34000080fa00ad
:1009c000000006000200fa00441680004622de0005
:1009d000614262000482fb00040f78001e0278006e
:1009e000040078000080fa00000006000200fa000f
:1009f00084408000040f78001e0278000400780014
:100a00000080fa00000006000200fa00000f7800e3
:100a1000f4ff20009e027800848f5200020036000e
:100a2000f4ff2000040f78001e027800050020006b
:100a30004606200006abb900060378006020b90026
:100a400080037800070343008402780044062000f6
:100a5000042ab8000503430086027800f67f2000d0
:100a6000070020000402430085824b00f2ff2000b3
:100a7000030020000400be00180207000002be00b0
:100a800004027800040078000080fa0000000600ec
:100a90000400fa0054408000040f78001e02780021
:100aa00004007800d8ff07000002780014079800bf
:100ab0009e029000c4032000848f5200070036007d
:100ac000403c290072ff070080bb200092fe070017
:100ad000d000200019ff070006003700e03c290085
:100ae0006bff070080bb20008bfe0700d0002000ba
:100af00012ff07000080fa00000006000000fa0064
:100b00000540800014408000848f520002003200b3
:100b100004408000144088000080fa0000000600b5
:100b20000000fa000440800005002000360020008c
:100b300007002000860f5200878f5a0011003e00e8
:100b40000460010003003700050037000a00370089
:100b500006003700c45c2000040001000c003700d0
:100b6000e46420000400010009003700c46920008b
:100b70000400010006003700046f2000040001009b
:100b800003003700c45c20000400010000000000e6
:100b90000080fa00000006000800fa00d9080700eb
:100ba00054002000040f7800b406200014079800b9
:100bb00044012000240798003402200034079800e4
:100bc00031c0b300c0c0b30048080700903d290001
:100bd000250b07003e029000844378001e0290001f
:100be000044378002e029000844278001e027800b0
:100bf00004427800874178000641780085407800fb
:100c0000044078001c0a0700120020005100200058
:100c1000500020002dff0700e001200033fe0700f8
:100c20001900370087fe07009e027800c44080004c
:100c3000848f5200140031009e029000c440800056
:100c4000848f5200100036002e0290006a0242008b
:100c500084027800d4408000848f52000a00310062
:100c60003e0290006a02420084027800d440800074
:100c7000848f520004003600e00120001bfe0700b4
:100c8000140020000440880004408000e00f52005f
:100c9000e4ff32000080fa00000006000400fa00c1
:100ca0009808070031c0b300c0c0b3000f080700a8
:100cb000903e2900ec0a070022002000710020006d
:100cc0003000200001ff0700e001200007fe0700c0
:100cd00046ff070000027800040f780039ff070084
:100ce000000278001407980069ff070074bb200019
:100cf0009e027800848f52000800340034002000e7
:100d00000440880043c1b30042c1b30041c1b300f5
:100d100040c1b300d8090700050037001e0290004b
:100d2000e10f520002003a00240020000440880035
:100d30000080fa00000006000200fa0054002000c3
:100d4000040f78000fff0700320020009100200000
:100d500010002000ddfe0700e0012000e3fd070099
:100d6000180037006708070031c0b300c0c0b300e7
:100d7000de070700903f2900bb0a070041c0b3000f
:100d800010c1b300d9070700c0402900b60a070008
:100d900041c0b30030c2b300d40707001e02780080
:100da000040078000cfe070080bb2000cffd070088
:100db000320020006100200040002000c3fe070038
:100dc0001e0fe9001e027800e00f5200e5ff3d0013
:100dd0000002eb00044088000080fa0000000600da
:100de0000800fa004708070044012000040f7800bb
:100df00044062000140798003402200024079800bd
:100e00002403200034079800cefe0700e0012000f4
:100e1000b6fd070011c0b300c0c0b300b3070700a0
:100e200000412900900a07003e02900084437800a8
:100e30001e029000044378002e0290008442780045
:100e40001e0278000442780087417800064178004d
:100e500085407800044078008709070051c0b3003e
:100e600090c1b300a1070700104229007e0a0700c5
:100e700032002000810020002000200093fe0700a7
:100e8000c012200099fd070019003700edfd070092
:100e90009e027800c4408000848f5200140031000c
:100ea0009e029000c4408000848f520010003600e3
:100eb0002e0290006f02520084027800d44080001d
:100ec000848f52000a0031003e0290006f025200ef
:100ed00084027800d4408000848f520004003600e1
:100ee000e001200081fd07000002eb0004408800c3
:100ef00004408000e20f5200e4ff32000080fa005c
:100f0000000006000400fa00000f780011079800a6
:100f100098fd07000002eb00044088000002eb008f
:100f200014408800f5fe0700fdfe0700fdff3700b6
:100f30000040da000000fe00889fbe008a9fbe00cd
:100f40008c1f780099000700a000330003866c0016
:100f50006450e1002e0032006420e10033003200d2
:100f60006150e1002f0032006120e10031003200c9
:100f700085855500eb07b00009002000080420001b
:100f8000050037000804440089844c000a00310041
:100f90000603430087834b000001530081815b00ff
:100fa000f8ff33000203be000800a000080444005c
:100fb00089844c00f6ff3900c639dd0083017300d7
:100fc00001003200130020008904d1000884d300fe
:100fd0000998a300050032000800a7000300a00044
:100fe0008904d1000884d3008b05e8008904d1006e
:100ff0000884d3000001eb000281d200300007001a
:1010000001f0a1000cf0a70001f0a000780037006b
:101010006420e1007a0032000801be000200be0038
:10102000f7ff37006120e100750032006000b80072
:10103000f3ff37000000200001f82700f0ff370021
:101040000001be00440007000470a70003f0a100e7
:1010500003f8a30013003a006509b1001000320044
:10106000090035006928e100020035000100280070
:101070000000050000004000818048008502e90072
:10108000fcff3a0000000600f88f42000500350022
:101090008100d1000080d3008502e800fcff3a0007
:1010a000000006008000eb00000005004f89de0014
:1010b00082017800990037006011b800a70037005e
:1010c00081002000618055000b003d000b002000d6
:1010d00061fe2f000100e1001d00340082817100db
:1010e000610164008904d1000884d3000000e80095
:1010f000faff3a00710020006100640003007000f4
:10110000020060000900320061044400e0844c00e9
:101110000988a500050032008b05e8006808e10099
:1011200002003a008904d1000884d300f20f2000a5
:101130000258e10005003d00c75ddd00f907b2007f
:101140008980750008007800000006000bf8270071
:101150008b00780000000500c70ade00f107b2002e
:10116000f50fb20008003200e1cf42000200320069
:101170000170a00024000500810f70000100320002
:101180000408050044000500810f700002003a00c9
:10119000140005008502e9000000400081c04800fd
:1011a000fcff3b000170a000240005000004be000d
:1011b000e9ff07000003be000405be000200be00f8
:1011c000e5ff0700844f7500000006000200be0026
:1011d0006450e100050036006420e10002003600a2
:1011e0000968a30001003a000800be000160a000e9
:1011f0004f0678004f05be004f04be0000000600f9
:10120000f0ff2f00f1ff2700f9ff3700889fbe0095
:101210008a9fbe008c1f7800e4ff0700ebff3300bd
:1012200003866c006450e100240032006420e10079
:10123000270032006150e100220032006120e1000d
:10124000210032008b854200eb07b1000134b80069
:10125000003ab8000804420089844a00013ab80004
:101260000030b8008880400009014a0004003300c3
:101270000000400081804800020149008b05e90020
:10128000c909dd0083017000010032001300200055
:10129000c814de004814dd004709de001200b20069
:1012a000c808de000884700085ff070001f0a10077
:1012b0000cf0a70001f0a000cdff37006120e10095
:1012c000cfff32000801be000200be00f7ff37006a
:1012d0006150e100fcff3a00c9ff37006022b8000e
:1012e000060220000000d0008180d2000482d200db
:1012f0008582d2000000a0000202520083825a00c0
:10130000030031000202420083824a000000a10073
:101310000603e900f3ff3a0000000600881f78008a
:10132000030478000300e00007003d0060001000a7
:10133000e080180060011900e081190002003b0004
:1013400001f02d00030037000400070008f0a7009b
:1013500001f0a0004f04780000000600889fbe0046
:101360008a9fbe0000827000040271000482710036
:10137000260032000004be000200be006011b8006a
:101380006b092000950220000182cf000a0039007d
:101390000541b1000082cf00070039000541b100ce
:1013a0000982cf00040039000541b1000882cf0056
:1013b000010039000541b10005425200120032001f
:1013c0000a003b0082817100610164008100d1004c
:1013d0000080d3008984d3000884d3008b05e80003
:1013e0000442e800f7ff3a00070037000804440011
:1013f00089844c0000004800818048008b05e9008a
:101400000442e900f9ff3a002dff07004f05be0036
:081410004f04be0000000600bd
:020000040000fa
:1014180000000000000000000000000000000000c4
:1014280000000000000000000000000000000000b4
:10143800000000003eff0000ff3e0000000000002a
:1014480000000000000d00000d000000000000007a
:101458000004000007030000000400000703000068
:101468000000000000000000000000000000000074
:1014780010fe0000fe10000010fe0000fe1000002c
:10148800010f00000f010000010f00000f01000014
:101498001c3e000022ff0000ff420000ce8c00002e
:1014a80003070000040f00000f04000007030000fa
:1014b8000000000006c60000f03c00000e0200001c
:1014c80000040000070300000006000006000000fa
:1014d8001e3f0000e1c10000412100003f1e000046
:1014e800060f0000090900000b0c00001e16000082
:1014f80000000000040700000300000000000000d6
:1015080000000000000000000000000000000000d3
:1015180000000000f8fe00000701000000000000c5
:1015280000000000000700000e0800000000000096
:101538000000000001070000fef8000000000000a5
:1015480000000000080e0000070100000000000075
:1015580020a80000f870000070f80000a820000023
:101568000000000000000000000000000000000073
:101578002020000020fc0000fc20000020200000ab
:101588000000000000010000010000000000000051
:101598000000000000000000000000000000000043
:1015a80000000000203c00001c00000000000000bb
:1015b8002020000020200000202000002020000023
:1015c8000000000000000000000000000000000013
:1015d8000000000000000000000000000000000003
:1015e80000000000000c00000c00000000000000db
:1015f8000000000000c00000f03c00000f030000e5
:10160800000c00000f0300000000000000000000b4
:10161800feff00000101000001010000fffe0000c4
:10162800070f000008080000080800000f07000066
:101638000004000006ff0000ff000000000000009a
:1016480000080000080f00000f0800000800000054
:101658000203000081c10000613100001f0e00007c
:101668000e0f00000908000008080000080c000020
:10167800020300000121000021210000ffde00001c
:10168800040c000008080000080800000f0700000c
:10169800e0f00000988c000086ff0000ff000000ca
:1016a8000000000000000000080f00000f08000004
:1016b8003f3f00002121000021210000e1c100007e
:1016c800040c000008080000080800000f070000cc
:1016d800fcfe00002321000021210000e0c00000e2
:1016e800070f000008080000080800000f070000a6
:1016f8000303000001810000e17900001f070000da
:1017080000000000000f00000f00000000000000b3
:10171800deff00002121000021210000ffde000083
:10172800070f000008080000080800000f07000065
:101738001e3f00002121000021210000fffe0000c3
:101748000008000008080000080c0000070300005b
:101758000000000000180000180000000000000051
:101768000000000000060000060000000000000065
:101778000000000000180000180000000000000031
:1017880000000000101e00000e0000000000000015
:1017980040e00000b01800000c0600000200000045
:1017a8000000000001030000060c00000800000013
:1017b80000a00000a0a00000a0a00000a000000061
:1017c8000000000000000000000000000000000011
:1017d80000020000060c000018b00000e040000005
:1017e800000800000c0600000301000000000000d3
:1017f8000203000001c10000e13100001f0e0000db
:1018080000000000000d00000d00000000000000b6
:101818000203000001c10000e13100001f0e0000ba
:1018280000000000000d00000d0000000000000096
:10183800f8fc00008683000083860000fcf80000a6
:101848000f0f000000000000000000000f0f000054
:10185800ffff00002121000021210000ffde000021
:101868000f0f000008080000080800000f0700001c
:10187800fcfe000003010000010100000306000057
:10188800030700000c080000080800000c06000010
:1018980001ff0000ff01000001030000fefc000042
:1018a800080f00000f080000080c000007030000e4
:1018b80001ff0000ff210000217100000303000068
:1018c800080f00000f080000080800000c0c0000ba
:1018d80001ff0000ff210000217100000303000048
:1018e800080f00000f0800000000000000000000c2
:1018f800fcfe00000301000041410000c3c60000d7
:10190800030700000c08000008080000070f00008b
:10191800ffff00002020000020200000ffff000043
:101928000f0f000000000000000000000f0f000073
:101938000001000001ff0000ff010000010000009d
:1019480000080000080f00000f0800000800000051
:10195800000000000000000001ff0000ff0100007f
:10196800060e000008080000080f0000070000002d
:1019780001ff0000ff700000d88c00000703000082
:10198800080f00000f000000000100000f0e00000b
:1019980001ff0000ff01000000000000000000003f
:1019a800080f00000f080000080800000c0c0000d9
:1019b800ffff00000c780000780c0000ffff00001b
:1019c8000f0f000000000000000000000f0f0000d3
:1019d800ffff00001c38000070e00000ffff00005f
:1019e8000f0f000000000000000000000f0f0000b3
:1019f800feff00000101000001010000fffe0000e1
:101a0800070f000008080000080800000f07000082
:101a180001ff0000ff210000212100003f1e0000ff
:101a2800080f00000f080000000000000000000080
:101a3800feff00000101000001010000fffe0000a0
:101a4800070f0000080e00001c3800002f070000d8
:101a580001ff0000ff21000021610000ff9e00003f
:101a6800080f00000f080000000000000f0f000022
:101a78000e1f00003121000021610000c786000010
:101a8800060e000008080000080800000f07000004
:101a98000303000001ff0000ff0100000303000032
:101aa80000000000080f00000f0800000000000000
:101ab800ffff00000000000000000000ffff000022
:101ac800070f000008080000080800000f070000c2
:101ad800ffff00000000000000000000ffff000002
:101ae80001030000060c00000c06000003010000c2
:101af800ffff000000e00000e0000000ffff000022
:101b0800010f00000e030000030e00000f0100008b
:101b1800070f000098f00000f09800000f07000081
:101b28000e0f000001000000000100000f0e000071
:101b38000f1f000030e00000e03000001f0f000021
:101b480000000000080f00000f080000000000005f
:101b580003830000c1610000311900000f07000075
:101b68000f0f000008080000080800000c0c000017
:101b780000000000ffff000001010000000000005d
:101b8800000000000f0f000008080000000000001f
:101b980055aa000055aa000055aa000055aa000041
:101ba80055aa000055aa000055aa000055aa000031
:101bb8000000000001010000ffff0000000000001d
:101bc80000000000080800000f0f000000000000df
:101bd800080c000006030000030600000c080000c3
:101be80000000000000000000000000000000000ed
:101bf80000000000000000000000000000000000dd
:101c0800101000001010000010100000101000004c
:101c180000000000080f000007000000000000009e
:101c280000000000000000000000000000000000ac
:101c3800009000009090000090f00000e00000008c
:101c4800070f000008080000080700000f08000040
:101c580001ff0000ff10000010300000e0c000008d
:101c6800080f000007080000080800000f07000020
:101c7800e0f00000101000001010000030200000fc
:101c8800070f000008080000080800000c04000006
:101c9800c0e000003010000011ff0000ff0000004d
:101ca800070f000008080000080700000f080000e0
:101cb800e0f000009090000090900000f0e000003c
:101cc800070f000008080000080800000c040000c6
:101cd80000100000feff00001111000003020000c8
:101ce800000800000f0f00000800000000000000be
:101cf800e0f000001010000010e00000f0100000fc
:101d0800276f000048480000487f00003f0000009f
:101d180001ff0000ff20000010100000f0e00000ac
:101d2800080f00000f000000000000000f0f000067
:101d38000010000010f60000f6000000000000008f
:101d480000080000080f00000f080000080000004d
:101d58000000000010100000f6f60000000000006f
:101d680030600000404000007f3f0000000000009d
:101d780001ff0000ffc00000c0600000301000003c
:101d8800080f00000f000000010300000e0c000007
:101d98000001000001ff0000ff000000000000003b
:101da80000080000080f00000f08000008000000ed
:101db800f0f0000030e00000e0300000f0e000004b
:101dc8000f0f000000070000070000000f0f0000c1
:101dd80010f00000e010000010100000f0e000001b
:101de800000f00000f000000000000000f0f0000af
:101df800e0f000001010000010100000f0e00000fb
:101e0800070f000008080000080800000f0700007e
:101e180010f00000e010000010100000f0e00000da
:101e2800407f00007f480000080800000f070000fe
:101e3800e0f000001010000010e00000f0100000ba
:101e4800070f000008080000487f00007f400000de
:101e580010f00000e010000010100000302000001a
:101e6800000f00000f00000000000000000000004c
:101e780060f00000909000009010000030200000fa
:101e8800040c000008080000090900000f06000003
:101e980010100000feff00001010000000000000fd
:101ea80000000000070f0000080c000004000000fc
:101eb800f0f000000000000000f00000f00000005a
:101ec800070f000008080000080700000f080000be
:101ed800f0f000000000000000000000f0f000003a
:101ee80001030000060c00000c06000003010000be
:101ef800f0f000000080000080000000f0f000001a
:101f0800070f00000c070000070c00000f07000077
:101f18001030000060c00000c060000030100000f9
:101f2800080c000006030000030600000c0800006f
:101f3800f0f000000000000000000000f0f00000d9
:101f4800474f000048480000486800003f1f000055
:101f58003030000010900000d070000030100000f9
:101f68000c0e00000b090000080800000c0c000013
:101f7800000000000000000000000000005f0000fa
:101f88000000000000070000000700000014000027
:101f98007f1400007f140000242a00007f2a00001c
:101fa8001223000013080000646200003649000094
:101fb800552200005000000005030000000000004a
:101fc800001c000022410000000000004122000027
:101fd8001c000000082a00001c2a00000808000055
:101fe800083e000008080000005000003000000013
:101ff8000008000008080000080800000030000081
:10200800300000000020000010080000040200005a
:102018003e510000494500003e000000427f00009c
:1020280040000000426100005149000046210000c4
:10203800414500004b31000018140000127f0000d9
:102048001027000045450000453900003c4a0000c3
:102058004949000030010000710900000503000033
:102068003649000049490000360600004949000089
:10207800291e0000003600003600000000000000a5
:10208800563600000000000000080000142200007e
:102098004114000014140000141400004122000030
:1020a80014080000000200000151000009060000a9
:1020b80032490000794100003e7e00001111000005
:1020c800117e00007f49000049490000363e0000ab
:1020d80041410000412200007f41000041220000f0
:1020e8001c7f000049490000494100007f090000a9
:1020f80009010000013e000041410000513200008a
:102108007f080000080800007f000000417f0000f1
:102118004100000020400000413f0000017f000016
:1021280008140000224100007f40000040400000e9
:10213800407f000002040000027f00007f040000ce
:10214800081000007f3e000041410000413e0000b1
:102158007f09000009090000063e00004151000007
:10216800215e00007f090000192900004646000092
:102178004949000049310000010100007f010000c9
:10218800013f000040400000403f00001f200000c9
:10219800402000001f7f000020180000207f000062
:1021a80063140000081400006303000004780000b2
:1021b800040300006151000049450000430000008d
:1021c800007f0000414100000204000008100000e8
:1021d80020410000417f00000000000004020000d0
:1021e80001020000044000004040000040400000a0
:1021f8000001000002040000002000005454000008
:10220800547800007f48000044440000383800003b
:1022180044440000442000003844000044480000c2
:102228007f3800005454000054180000087e000055
:10223800090100000208000014540000543c00008a
:102248007f0800000404000078000000447d0000be
:102258004000000020400000443d00000000000055
:102268007f10000028440000004100007f4000006b
:10227800007c000004180000047800007c080000be
:10228800040400007838000044440000443800008a
:102298007c14000014140000080800001414000046
:1022a800187c00007c0800000404000008480000b6
:1022b8005454000054200000043f00004440000033
:1022c800203c000040400000207c00001c20000052
:1022d800402000001c3c000040300000403c000052
:1022e8004428000010280000440c00005050000052
:1022f800503c000044640000544c000044000000be
:102308000836000041000000000000007f000000c7
:102318000000000041360000080000000808000026
:102328002a1c0000080800001c2a000008080000f9
:102338000000000000000000000000000000000095
:102348000000000000000000000000000000000085
:102358000000000000000000000000000000000075
:102368000000000000000000000000000000000065
:10277800dc0000003a0e0000080200007a0d00009c
:10278800446f000062610000722000006461000074
:102798006e000000446f0000627200006f200000ad
:1027a8007665000063650000004e0000616f000060
:1027b800727500007a6100006a20000073690000e9
:1027c80073740000656d0000005300006973000019
:1027d800746500006d2000006e6100006f720000db
:1027e800757a0000616e00000041000075740000f9
:1027f8006f6d000061740000736b00006f200000b3
:1028080067610000736500006e6a000065000000e3
:102818007a6100003a0000004d6100006e7500000a
:10282800656c00006e6f0000206700006173000097
:10283800656e00006a6500000055000067610000d1
:10284800736900002073000069730000746500005c
:042858006d0000000f
:020000040000fa
:10285c000200fa00004f78001e427800e04f520050
:10286c00050032001517800004022000048272005b
:10287c00141788000400370015178000f4fd2f0092
:10288c0004826200141788000080fa000000060021
:10289c000200fa00004f78001e427800e04f520010
:1028ac0004003200141780000440a00014178800a4
:1028bc000400370015178000f4fe2f00048262001c
:1028cc00141788000080fa00000006000200fa00cd
:1028dc00004f78001e427800e04f52000400320096
:1028ec00141780000410a00014178800040037008f
:1028fc0015178000d4ff2f00048262001417880083
:10290c000080fa00000006000200fa00004f780078
:10291c001e427800e04f5200040032001417800071
:10292c000400a0001417880004003700151780005d
:10293c00e4ff2f0004826200141788000080fa0064
:10294c00000006000200fa00004f78001e427800da
:10295c00e04f5200050032005516800004022000a2
:10296c00048272005416880004003700551680004b
:10297c00f4fd2f0004826200541688000080fa00d7
:10298c00000006000200fa00004f78001e4278009a
:10299c00e04f520004003200541680000440a000a6
:1029ac00541688000400370055168000f4fe2f00e2
:1029bc0004826200541688000080fa0000000600b1
:1029cc000000fa00dea2a900de82a900de22a90026
:1029dc00de02a900a8a2a800c6a2a900a882a8008d
:1029ec00c682a900a802a800c602a900a822a800b5
:1029fc00c622a900a842a800c642a900a862a80045
:102a0c00c662a900d202a900d222a900d242a90012
:102a1c00d262a9000080fa00000006000200fa0051
:102a2c00004f78001e427800e04f520008003a0038
:102a3c00d202a900d222a900d242a900d262a900d6
:102a4c00c662a900c642a900c622a900c602a900f6
:102a5c001e427800e14f520008003a00d202a80052
:102a6c00d222a800d242a800d262a800c662a80056
:102a7c00c642a800c622a800c602a8000080fa0020
:102a8c00000006000400fa00204798002e42900037
:102a9c00044f7800b516800004ff2f0004826200fa
:102aac00b41688005516800004ff2f0004826200c3
:102abc00541688009e4278006fc26200144798003a
:102acc001e4290008482fb00541680000482720027
:102adc00541688009e4278000582fb004422de00da
:102aec00044f78001e4278008482fb00b4168000ec
:102afc0004827200b41688000080fa000000060000
:102b0c000200fa00a4168000044f78001e427800e0
:102b1c00450020000522dd00044f7800441680009b
:102b2c00144798001e4290006f42620014479800b0
:102b3c001e4290001e424200144798001e42900014
:102b4c00044078000080fa00000006000000fa0043
:102b5c0010c0b3004eff07000040eb004cff070015
:102b6c000080fa00000006000200fa00004f780016
:102b7c000040eb0064ff07000040eb0053ff070030
:102b8c001e407800bfff0700f0ff07000080fa002e
:102b9c00000006000400fa00100798000002eb0089
:102bac00040f7800010037001e0fe8001e02900091
:102bbc009e027800848f5200fbff39000080fa00df
:102bcc00000006000200fa000040eb004eff070078
:102bdc0010c0b3003dff070010c0b3008fff07000b
:102bec0010c0b3002aff0700c5ff070000427800a1
:102bfc00044f78000040eb0025ff0700030037006e
:102c0c00bfff070000427800044f78001e42780096
:102c1c00e04f5200faff35000080fa000000060079
:102c2c000200fa00004f7800f4c3b3009e42780013
:102c3c0084cf52000a003e0010c0b30039000700d8
:102c4c0004c4b3001e42720004407800c6ff0700a3
:102c5c0014c0b300044078003ee8b7000f00370002
:102c6c001e427800e04f52000c0035000040eb0093
:102c7c002c00070004ccb3001e42420084427800b2
:102c8c0004c4b30004c2720004407800b6ff07000d
:102c9c000042eb00044078003ee8b7001e4078008c
:102cac003ce8b7000080fa00000006000200fa00c1
:102cbc00004f78001e427800e74f520006003e009d
:102ccc0084cbb3001e42720004407800a6ff0700bc
:102cdc001e4078003de8b7000080fa0000000600b6
:102cec000200fa00004f7800114798001e4078004f
:102cfc00cbff07001e409000ecff07000080fa009d
:102d0c00000006000200fa00004f780004ccb3006b
:102d1c001e4272000440780093ff07000080fa0006
:102d2c00000006000200fa00004f78000040eb00a3
:102d3c00f5fe07001e427800e04f52000c003a00ee
:102d4c000040eb00e1fe070010c0b3000dff0700d0
:102d5c000040eb00fbfe0700f0c3b30082ff07004e
:102d6c000042eb00044078003ee8b7000b0037004f
:102d7c000040eb00d5fe07000040eb0001ff070010
:102d8c0010c0b300effe0700f0c3b30076ff0700de
:102d9c0014c0b300044078003ee8b7000080fa008d
:102dac00000006000200fa0010c0b3001bff070071
:102dbc0010c0b300d4fe070010c0b300c3fe070060
:102dcc0062ff070010c0b300b1fe07004cff070004
:102ddc0000427800044f78000040eb00acfe070086
:102dec000040eb000dff07000040eb00c6fe0700a3
:102dfc000040eb00b5fe07001e427800044078004e
:102e0c000080fa00000006000000fa000040eb0011
:102e1c001cff07000040eb00bbfe07000040eb006e
:102e2c00aafe07000040eb0099fe07000040eb00f3
:102e3c00d4fe07000040eb00c2fe070010c0b30038
:102e4c0083fe0700a000200052ff07000040eb00ab
:102e5c007ffe0700a00020004eff070010c0b3004b
:102e6c007bfe070010c0b300aeff0700e0c3b30049
:102e7c003dff070000ccb3003bff070080cbb30045
:102e8c0039ff070000c4b30037ff0700f0c3b300dd
:102e9c0035ff07000040eb00a2ff0700e0c3b300c2
:102eac0031ff070000ccb3002fff070080cbb3002d
:102ebc002dff070000c4b3002bff0700f0c3b300c5
:102ecc0029ff07000080fa00000006000200fa004b
:102edc00004f780010c0b3008bfe07000040eb00e1
:102eec007afe07001e407800e6fe070017ff070079
:102efc000080fa00000006000200fa000042eb001d
:102f0c00144798001d0037009e4090000040eb00d5
:102f1c0073ff07000042eb00044f780003003700fa
:102f2c000040eb00e9ff07001e4fe800f4c3b300bc
:102f3c009e42780084cf5200f9ff36009e409000ec
:102f4c0000c4b30066ff07000042eb00044f78009a
:102f5c00030037000040eb00dcff07001e4fe800c9
:102f6c00f4c3b3009e42780084cf5200f9ff3600c0
:102f7c001e4290000442e800144798001e42900044
:102f8c00e74f5200e0ff36000080fa000000060018
:102f9c000200fa000042eb00144798001d003700b5
:102fac009e4090000040eb004dff07000042eb00fc
:102fbc00044f78000300370000c0eb00c3ff07008c
:102fcc001e4fe800f4c3b3009e42780084cf520039
:102fdc00f9ff36009e40900000c4b30040ff07008c
:102fec000042eb00044f78000300370000c0eb00f8
:102ffc00b6ff07001e4fe800f4c3b3009e427800f2
:10300c0084cf5200f9ff36001e4290000442e800c3
:10301c00144798001e429000e74f5200e0ff360024
:10302c000080fa00000006000400fa001007980067
:10303c000042eb0014479800300037009e4090008f
:10304c000040eb0026ff07000042eb00044f780025
:10305c000c0037001e4290000482fb00c722dd00ea
:10306c001e4378000682fb00048242009e02900000
:10307c0004824200144278000440780093ff070059
:10308c001e4fe800f4c3b3009e42780084cf520078
:10309c00f0ff36009e40900000c4b30010ff070004
:1030ac000042eb00044f78000d0037001e429000e8
:1030bc000482fb00c722dd001e4378000682fb0061
:1030cc00048242000404b0009e029000048242007c
:1030dc0014427800044078007cff07001e4fe80083
:1030ec00f4c3b3009e42780084cf5200efff360049
:1030fc001e4290000442e800144798001e429000c3
:10310c00e74f5200cdff36000080fa0000000600a9
:10311c000400fa0020479800314798000042eb0069
:10312c00044f78003e4290000482fb004322de00f4
:10313c0004427800844078002e409000e8fe07009e
:10314c0018ff070000427800044f78003e429000c0
:10315c000482fb004322de000442780084407800a5
:10316c002e409000defe07003e4290000482fb00e1
:10317c006702620015002000042add0084427800fa
:10318c001e42780004c27200044078004fff070012
:10319c000080fa00000006000400fa0020479800a6
:1031ac00314798000042eb00044f78003e429000fb
:1031bc000482fb004322de00044278008440780045
:1031cc002e409000c6fe0700f6fe07000042780075
:1031dc00044f78003e4290000482fb004322de0044
:1031ec0004427800844078002e409000bcfe07001a
:1031fc003e4290000482fb00670262001500200032
:10320c00042add000442780084c2ea001e427800e1
:10321c0004c26200044078002cff07000080fa0012
:10322c00000006000c00fa00004f9800114f9800a7
:10323c00224f98000002eb00040f78000002eb0014
:10324c00140798000002eb00240798009e4a900097
:10325c000e4a900004c25200644798002e4a900017
:10326c000482fb00140798002e4a90008482fb0015
:10327c00e4ff2f0004aab90004027800630f420097
:10328c00740037001e029000844278001e4a9000a1
:10329c0084c242002e029000044378000e4a900033
:1032ac0004424300854078000440780098ff0700f2
:1032bc001e029000044278009e4a900084c2520084
:1032cc002e029000044378000e4a90000442430002
:1032dc0085407800044078008dff07001e029000a6
:1032ec00844278001e4a900084c242002e02900054
:1032fc00044278000e4b9000044253008540780045
:10330c000440780082ff07001e02900004427800ff
:10331c009e4a900084c252002e0290000442780013
:10332c000e4b900004425300854078000440780016
:10333c0077ff07002e029000844278001e4a90000e
:10334c0084c242001e029000044378001e4a900082
:10335c00044343006e4290000442530085407800c1
:10336c00044078006aff07002e02900004427800a7
:10337c009e4a900084c252001e02900004437800c2
:10338c001e4a9000044343006e42900004425300d6
:10339c0085407800044078005dff07002e02900005
:1033ac00844278001e4a900084c242001e029000a3
:1033bc00044278001e4b9000044353006e42900070
:1033cc0004425300854078000440780050ff070009
:1033dc002e029000044278009e4a900084c2520053
:1033ec001e029000044278001e4b900004435300d0
:1033fc006e429000044253008540780004407800ef
:10340c0043ff07001e027800e00f520005003d004c
:10341c002e0290004222dd00660242001e0f420086
:10342c0009003700ae0290001e0290000482520088
:10343c004222dd006a0242001e0f42001e02900072
:10344c000402e900140798002e0290000402e80020
:10345c0024079800ae0290001e029000848f520048
:10346c0088ff34000080fa00000006000600fa0015
:10347c0020479800314798004247980053479800de
:10348c000042eb00044f78000042eb00044f780040
:10349c000b0037002e4290001e424200be409000ae
:1034ac00044078001aff07002e4290001e42420092
:1034bc00de4090000440780015ff07001e4fe80026
:1034cc001e4278008482fb004e4290000483fb0075
:1034dc002e4290000482fb00040253000402e80018
:1034ec00848f5200ebff35000042eb00044f780054
:1034fc000b0037003e4290001e4242008440780090
:10350c002e40900002ff07003e4290001e424200f7
:10351c00844078004e409000fdfe07001e4fe800ee
:10352c001e4278008482fb005e4290000483fb0004
:10353c003e4290000482fb00040253000402e800a7
:10354c00848f5200ebff35000080fa00000006006b
:10355c000400fa0020479800c4832000144278002d
:10356c000482fb00e5024200f4072000848f520025
:10357c000f003400d4832000144278000442e80089
:10358c00044078003de8b700d48320001442780052
:10359c00e74f5200030036000042eb000440780075
:1035ac003de8b7000042eb00044078003ce8b7006f
:1035bc00d583200095427800c48320001442780003
:1035cc008540780004407800c5fd07000042eb0000
:1035dc00044f78001a0037002e4290000402fb00c2
:1035ec006522b9000402780005f62f00848242009f
:1035fc001e4378000682fb0004824200c5fb2800b3
:10360c0065427a000440780030fe0700c483200035
:10361c00144278000442e800044078003ce8b7000b
:10362c00d583200095427800c48320001442780092
:10363c008540780004407800a9fd07001e4fe80083
:10364c001e427800e44f5200e3ff36000040eb00ce
:10365c001efe0700c4832000144278000442e800d8
:10366c00044078003ce8b7000080fa000000060037
:10367c000400fa0020479800c4832000144278000c
:10368c000482fb00e8024200f4072000848f520001
:10369c0014003400d4832000144278000442e80063
:1036ac00044078003de8b700d48320001442780031
:1036bc000442e800044078003de8b700d4832000c1
:1036cc0014427800e74f5200030036000042eb0032
:1036dc00044078003de8b7000042eb00044078005d
:1036ec003ce8b7000042eb00044f7800560037006e
:1036fc00d583200095427800c483200014427800c2
:10370c00854078000440780075fd07002e4290003b
:10371c000402fb000402b100c422dd001e43780049
:10372c000682fb0004824200c5a0280065427a0094
:10373c0004407800e5fd0700d48320001442780093
:10374c000442e8008442780084cbb30004c27200c7
:10375c000440780004fd0700c583200095427800e2
:10376c00f4c3b30084cf52000c003e0010c0b30071
:10377c006cfd0700c58320009542780004c4b3009b
:10378c0004c2720004407800f7fc070014c0b300b8
:10379c00044078003ee8b70012003700c4832000d4
:1037ac0014427800e04f52000e0035000040eb0050
:1037bc005cfd0700c58320009542780004ccb30063
:1037cc0004c242008442780004c4b30004c27200f4
:1037dc0004407800e4fc07000042eb000440780051
:1037ec003ee8b7002e4290000402fb000402b10038
:1037fc00c422dd001e4378000682fb0004824200d6
:10380c0068024200c5a0280065427a000440780096
:10381c00aefd0700c4832000144278000442e80087
:10382c00044078003ce8b700d5832000954278002e
:10383c00c48320001442780085407800044078004e
:10384c0027fd07001e4fe8001e427800e74f52008c
:10385c00a7ff36000080fa00000006000200fa0004
:10386c00000f7800050037001e0278001442780023
:10387c000440780036ff07001e0fe8001e02780097
:10388c0014427800e04f5200f7ff3a000080fa0033
:10389c00000006000600fa00404798004e429000d7
:1038ac000482fb00cfa2de000400be00fcf5070082
:1038bc000002be006266260063fa23000400be000c
:1038cc009af507000002be000400be00d9f50700ff
:1038dc000002be00244798000042eb00044f780021
:1038ec00140037002e429000144798000700370050
:1038fc009e4090001e40780005fe07009e429000fe
:10390c002e42900004c24200144798001e429000c0
:10391c008482fb002e4290000482fb0006042000ef
:10392c0004025300848f5200f1ff35001e427800d0
:10393c00634f4200e4c7b3009e42780084cf52002c
:10394c00e8ff36004e42900004cfe9000f0037002c
:10395c000042eb0014479800060037009e40900090
:10396c001e407800eafd07001e42900004c2e800e9
:10397c00144798009e429000e4c3b30084cf5200d9
:10398c00f6ff36004e4290001e4f4200b4c7b30003
:10399c009e42780084cf5200edff36000080fa0082
:1039ac00000006000600fa002047980031479800f6
:1039bc0042479800534798000042eb00044f7800b0
:1039cc000042eb00044f78000b0037002e429000b1
:1039dc001e424200be40900004407800eefd0700fd
:1039ec002e4290001e424200de40900004407800bf
:1039fc00e9fd07001e4fe8001e4278008482fb00a0
:103a0c004e4290000483fb002e4290000482fb0087
:103a1c00040253000402e800848f5200ebff3500cf
:103a2c000042eb00044f78000b0037003e42900040
:103a3c001e424200844078002e409000d6fd0700c4
:103a4c003e4290001e424200844078004e4090005e
:103a5c00d1fd07001e4fe8001e4278008482fb0057
:103a6c005e4290000483fb003e4290000482fb0007
:103a7c00040253000402e800848f5200ebff35006f
:103a8c000080fa00000006000000fa00a902a9005c
:103a9c00a922a900c702a800c722a8000080fa002a
:103aac00000006000000fa00a1a2a9000415800085
:103abc000480a1000490a100041588000415800066
:103acc000450a0000460a0000470a000041588003d
:103adc00a022a8001415800004d0a00004e0a000cf
:103aec0004f0a00014158800a342a800141580004f
:103afc000420a0000430a0000440a1000450a10048
:103b0c0014158800a222a900a202a9002515800084
:103b1c0004f021000482720024158800a4e2a8009d
:103b2c002515800004fc2f0004826200f401b30010
:103b3c0024158800a782a900a682a900341580004c
:103b4c000400a1000410a1000420a1000430a10075
:103b5c0034158800341580000480a1000490a10065
:103b6c0004a0a10004b0a10034158800a8c2a800cc
:103b7c00a902a900a922a900a8e2a900a982a9006a
:103b8c000438210054158800a042a8008560a800c4
:103b9c008d60a800a1e2a8000080fa0000000600d9
:020000040000fa
:103bac000008000034000000000000003408000091
:103bbc0008000000020000000000000000000000ef
:103bcc00000000003c08000004000000020000009f
:0c3bdc00000000000000000000000000dd
:020000040000fa
:103be8000000fa0011e1a9000002eb003408880087
:103bf800d4142000640888001021a90084c0a900fa
:103c08008cc0a80011e1a8000080fa00000006009e
:020000040000fa
:0200000401f009
:04000000f5bf000048
:020000040000fa
:0200000401f009
:04000400ff7f00007a
:020000040000fa
:0200000401f009
:04001400ffff0000ea
:00000001FF
